:020000040000FA
:100000000C9414070C943C070C943C070C94F11CC2
:100010000C94F11C0C94F11C0C943C070C94951C52
:100020000C943C070C943C070C943C070C943C0744
:100030000C943C070C943C070C943C070C943C0734
:100040000C944B1C0C943C070C943C070C943C0700
:100050000C943C070C943C070C943C070C943C0714
:100060000C94691D0C943C07000000000500010081
:1000700000020D0602F4040005040601F407000A5C
:100080000C0A00F5160009100A01F32800100D10E3
:1000900001F442000B0D0C01F4540002040401F4BD
:1000A000550004110601F45E0004110601F4670016
:1000B00005050701F46B0006080B03F97100020443
:1000C000050200720004010601FC73000201050133
:1000D000007400050D0500F47D00080D0A01F48A86
:1000E00000040D0A03F49100090D0A01F4A00008B0
:1000F0000D0A01F4AD00070D0A02F4B900090D0A5A
:1001000001F4C800090D0A01F4D700080D0A00F433
:10011000E400090D0A01F4F300080D0A01F40001DE
:10012000020A0501F70301030C0501F8080109099A
:100130000B01F8130109040B01FB180109090B015C
:10014000F82301090D0A01F4320111101201F454CF
:10015000010C0D0C00F468010B0D0C01F47A010B7D
:100160000D0D01F48C010B0D0D01F49E01090D0B19
:1001700001F4AD01080D0B01F4BA010C0D0E01F4F0
:10018000CE010B0D0D01F4E001020D0502F4E401B6
:10019000070D0A01F4F0010B0D0C01F40202080D29
:1001A0000A01F40F020D0D0F01F425020B0D0D01D4
:1001B000F437020D0D0E01F44D020A0D0C01F45E30
:1001C000020D0E0E01F475020C0D0D01F489020AE8
:1001D0000D0C01F49A02090D0B01F4A9020B0D0D8F
:1001E00001F4BB020B0D0C00F4CD02110D1100F453
:1001F000E9020C0D0C00F4FD020C0D0C00F41103CF
:100200000A0D0B01F4220303110501F42903050D66
:100210000500F4320303110500F439030707080150
:10022000F440030A010A0003420304030500F444F6
:1002300003090A0A01F75003090D0A01F45F0308D4
:100240000A0901F76903080D0A01F47603080A0A8E
:1002500001F78003040D0501F48703080E0A01F776
:100260009503080D0A01F4A203020D0401F4A6038C
:1002700004110400F4AF03090D0901F4BE03020DDB
:100280000401F4C2030D0A0F01F7D303080A0A019F
:10029000F7DD03080A0A01F7E703090D0A01F7F67B
:1002A00003080D0A01F70304050A0601F70A04080A
:1002B0000A0901F71404040C0501F51A04080A0AD6
:1002C00001F72404090A0900F730040D0A0D00F7AC
:1002D0004104080A0900F74B04090E0900F75B0402
:1002E000070A0901F7640404110601F46D04021100
:1002F0000402F4720404110601F47B0407030901EB
:10030000F9FFFFF8C0DEF72009864191FF1304C30F
:1003100020C8FF89826190101F14DA3D1E83407847
:100320001708F47A3533F040203810EC20C620C688
:1003300040C6406C803900013C02770263046304CC
:1003400077083C0E0660CC1981E0180F0336C2D83E
:10035000730631E3C4FE13266CCCCCC46623108C28
:100360004663333332664C80257EA50030C33F3070
:10037000C30CD6F0C00844211084421108003C662A
:1003800042C3C3C3C3C3C3C342663C113F33333309
:1003900033303E31B07830181C1C1C181810080778
:1003A000F83C66C3C303061C0703C3C3663C0C18B2
:1003B0007162C9A346FE183060C07F20100808078C
:1003C000F38C030180F06C63E01E3198780C06F327
:1003D0008D83C1E0D06C63E0FF030206040C0818B3
:1003E00018181030303E31B0783C1B18F8C6C1E008
:1003F000F06C63E03C66C2C3C3C3673B0303C266E1
:100400003CC00030C0000064A00081C78E0C078093
:10041000700E0180FF80001FF000700E01C01838C0
:1004200071C080003E31B0783018183818180C00B0
:1004300000018003F0060E06018600661DBB31CF69
:1004400018C79863CC31E611B399CCF786000180C8
:100450000070400FE00600F00F00901981981083A3
:100460000C3FC204606606C030FF183303606C0D99
:10047000833FC606C0780F01E06FF81F861981A080
:100480003C0180300600C0680D831861F0FF18330E
:1004900003603C0780F01E03C0780F0360CFF0FFBD
:1004A000E030180C0603FD80C06030180FF8FFC064
:1004B000C0C0C0C0FEC0C0C0C0C0C00F830E606658
:1004C00003C00C00C1FC03C0360360730F0F10C0E3
:1004D000780F01E03C0780FFFE03C0780F01E03C8D
:1004E00006FFFFFFC0060C183060C183078F1E2770
:1004F00080C0D8330C630CC1B83F0730C318630603
:10050000606C0CC0C0C0C0C0C0C0C0C0C0C0C0FF14
:10051000E03F01FC1FE0FD05EC6F637913CD9E6C9D
:10052000F1478E3C7180E07C0FC1E83D8798F11E59
:1005300033C3786F07E07C0E0F8183180CC06C0109
:10054000E00F007803C01B01980C60C0F800FF307A
:100550006C0F03C0F06FF300C0300C0300C0000F3D
:100560008183180CC06C01E00F007803C01B019858
:100570006C60C0FB0008FF8C0EC06C06C06C0CFFEA
:100580008C0EC06C06C06C06C0703F186C0F03C0A8
:100590001E01F00E00F03C0D863F00FF8603018037
:1005A000C06030180C06030180C0C0780F01E03C29
:1005B0000780F01E03C0780F01B061F0C06C0D81A0
:1005C00010630C610460CC1901603C070060C181BC
:1005D00030E19870CC286626211330C8986C4C14F2
:1005E000340A1A0707030380818060630C30C198C6
:1005F0000F00E00600F019019830C60E6060C036AA
:100600000630C30C1981D80F006006006006006038
:100610000600FFC060300C060301C06030180603FE
:1006200000FFC0FB6DB6DB6DB6E084108410841053
:10063000841080EDB6DB6DB6DBE03060A244D8A15B
:1006400080FFC0C6307E71B0C060F3DB0D86C73D51
:10065000C0C060301BCE360F0783C1E0F07C6DE078
:100660003C66C3C0C0C0C0C3663C0303033B67C352
:10067000C3C3C3C3C3673B3C66C3C3FFC0C0C36639
:100680003C366F66666666603B67C3C3C3C3C3C35D
:10069000673B0303C67CC0C0C0DEE3C3C3C3C3C3A0
:1006A000C3C3C3C3FFFFC03003333333333333E03B
:1006B000C06030184C466361F0EC6231986C30FFDA
:1006C000FFFFC0DEF71CF0C7863C31E18F0C78637A
:1006D000C31E18C0DEE3C3C3C3C3C3C3C3C33C66E6
:1006E000C3C3C3C3C3C3663CDE71B0783C1E0F07EF
:1006F00083E36F30180C003B67C3C3C3C3C3C36736
:100700003B030303DF318C6318C6003EE3C0C0E047
:100710003C07C3E37E66F666666667C3C3C3C3C3AE
:10072000C3C3C3C77BC1A098CC4221B0D0281C0C46
:1007300000C61E3891C4CA66D316D0A6871C38C01E
:10074000C6004362361C181C3C266243C12198CC6B
:100750004261B0D0381C0C0603010300FE0C30C10E
:10076000861820C1FC3666666ECE66666630FFFF70
:10077000FFFFC0C666666737666666C061243800DC
:10078000000000003E5B4F5B3E3E6B4F6B3E1C3EED
:100790007C3E1C183C7E3C181C577D571C1C5E7F01
:1007A0005E1C00183C1800FFE7C3E7FF0018241880
:1007B00000FFE7DBE7FF30483A060E2629792926B5
:1007C000407F050507407F05253F5A3CE73C5A7F9F
:1007D0003E1C1C08081C1C3E7F14227F22145F5FF5
:1007E000005F5F06097F017F006689956A6060602F
:1007F000606094A2FFA29408047E040810207E206A
:100800001008082A1C08081C2A08081E10101010BE
:100810000C1E0C1E0C30383E3830060E3E0E060004
:100820000000000000005F00000007000700147FC8
:10083000147F14242A7F2A1223130864623649562F
:1008400020500008070300001C2241000041221C28
:10085000002A1C7F1C2A08083E080800807030000F
:100860000808080808000060600020100804023E24
:100870005149453E00427F40007249494946214165
:10088000494D331814127F1027454545393C4A49D4
:100890004931412111090736494949364649492913
:1008A0001E00001400000040340000000814224123
:1008B0001414141414004122140802015909063EAC
:1008C000415D594E7C1211127C7F494949363E41A7
:1008D0004141227F4141413E7F494949417F0909C8
:1008E00009013E414151737F0808087F00417F4163
:1008F000002040413F017F081422417F404040409A
:100900007F021C027F7F0408107F3E4141413E7FF1
:10091000090909063E4151215E7F091929462649E8
:1009200049493203017F01033F4040403F1F2040BF
:10093000201F3F4038403F631408146303047804C9
:10094000036159494D43007F414141020408102091
:10095000004141417F040201020440404040400008
:100960000307080020545478407F28444438384412
:10097000444428384444287F385454541800087E8E
:10098000090218A4A49C787F0804047800447D40E0
:10099000002040403D007F1028440000417F40007F
:1009A0007C047804787C080404783844444438FC97
:1009B0001824241818242418FC7C0804040848541B
:1009C00054542404043F44243C4040207C1C2040D8
:1009D000201C3C4030403C44281028444C909090CF
:1009E0007C4464544C440008364100000077000009
:1009F000004136080002010204023C2623263C1E68
:100A0000A1A161123A4040207A38545455592155D9
:100A100055794122545478422155547840205455F8
:100A200079400C1E52721239555555593954545447
:100A30005939555454580000457C410002457D42C7
:100A40000001457C407D1211127DF0282528F07CA4
:100A5000545545002054547C547C0A097F4932493E
:100A60004949323A4444443A324A4848303A41418A
:100A7000217A3A42402078009DA0A07D3D4242422A
:100A80003D3D4040403D3C24FF2424487E49436690
:100A90002B2FFC2F2BFF0929F620C0887E0903206D
:100AA000545479410000447D413048484A3238402E
:100AB00040227A007A0A0A727D0D19317D26292991
:100AC0002F28262929292630484D40203808080893
:100AD0000808080808382F10C8ACBA2F102834FAB4
:100AE00000007B000008142A142222142A1408553E
:100AF00000550055AA55AA55AAFF55FF55FF0000FD
:100B000000FF00101010FF00141414FF001010FF5D
:100B100000FF1010F010F0141414FC001414F7006F
:100B2000FF0000FF00FF1414F404FC141417101F3E
:100B300010101F101F1414141F00101010F00000CC
:100B400000001F101010101F10101010F0100000E7
:100B500000FF101010101010101010FF10000000F7
:100B6000FF140000FF00FF00001F10170000FC042E
:100B7000F414141710171414F404F40000FF00F711
:100B800014141414141414F700F714141417141074
:100B9000101F101F141414F4141010F010F00000A3
:100BA0001F101F0000001F14000000FC140000F0C4
:100BB00010F01010FF10FF141414FF141010101F69
:100BC00000000000F010FFFFFFFFFFF0F0F0F0F07A
:100BD000FFFFFF0000000000FFFF0F0F0F0F0F3897
:100BE00044443844FC4A4A4A347E02020606027EE5
:100BF000027E0263554941633844443C04407E20F0
:100C00001E2006027E020299A5E7A5991C2A492A00
:100C10001C4C7201724C304A4D4D3030487848308F
:100C2000BC625A463D3E494949007E0101017E2A87
:100C30002A2A2A2A44445F444440514A44404044BA
:100C40004A51400000FF0103E080FF000008086BEC
:100C50006B083612362436060F090F0600001818E6
:100C60000000001010003040FF0101001F01011EB4
:100C700000191D1712003C3C3C3C00000000000124
:100C800003680020007E0016000000000000000045
:100C90000000000000000000000000007FFE0000D7
:100CA00000078001E000000C000020000018000098
:100CB00018000030000004000020000004000020A4
:100CC000000004000060000002000040000002007C
:100CD0000040000001000040000001000040000052
:100CE0000100007FE0000100007FFFFFFF00007FA8
:100CF000FFFFFF0000D7FFFFE10001BFFC1FFA80EC
:100D000001BFF1CFFA80013FC237F78001EF9C01AC
:100D1000E7C001E07006068001E0C003068001FF25
:100D20008001FF8001F800001DC0037000800C608E
:100D300005B007F0089009101FF809D00B901F7C30
:100D400003F00FC0FC0F07900D43C003079005642C
:100D50000000CF1007FC00002610018000001020CA
:100D6000010000000E40018007F00180008007C8EC
:100D7000008000800BE80080008797E9E080008712
:100D8000DFEFA080004BFFFFA080006BDFFBA30024
:100D9000002497E82400001E1FC02C000007F81F45
:100DA000F00000000FF80000000000001C003FF001
:100DB0003C003C00FF007FFF7FFFFF003C003C0049
:100DC0001FF01C00000000000000000024002700AD
:100DD0002A000000000800020100000304070000D0
:100DE000000000000000020000000023002600298F
:100DF0000000000000250028002B00040404040467
:100E000004040402020202020203030303030301B7
:100E1000020408102040800102040810200102048E
:100E200008102000881EB32A11241FBECFEFD8E07F
:100E3000DEBFCDBF16E0A0E0B1E0E6E7FDE502C011
:100E400005900D92A633B107D9F727E0A6E3B6E0E7
:100E500001C01D92AF39B207E1F717E0C3E1D7E057
:100E600004C02197FE010E94A62CC231D107C9F708
:100E70000E94541F0C94AE2E0C94000028E030E029
:100E800040E8E0919107F091920750819091980786
:100E9000909595239083E0918F07F0919007909122
:100EA0009707582F542389F05081952B9083E09118
:100EB0009107F0919207908150919807952B90831C
:100EC000469521503109E9F6089550819095952372
:100ED000EDCF089581E480937C0080917A00806456
:100EE00080937A0080917A0086FDFCCF8091780013
:100EF000909179000895833081F028F4813099F041
:100F00008230A9F008958730A9F08830C9F0843084
:100F1000B1F4809180008F7D03C0809180008F7735
:100F200080938000089584B58F7784BD089584B53B
:100F30008F7DFBCF8091B0008F778093B0000895B4
:100F40008091B0008F7DF9CFCF93DF93E8EDFDE086
:100F50008491E5E1FEE0D491E1E0FEE0C491CC2390
:100F6000A1F081110E947B07EC2FF0E0EE0FFF1F34
:100F7000E951F24FA591B491EC91ED2381E090E01D
:100F800009F480E0DF91CF91089580E090E0FACFFE
:100F90001F93CF93DF93282F30E0F901EE52F24FE9
:100FA0008491F901E15FF14FD491F901E550F24FDD
:100FB000C491CC23A9F0162F81110E947B07EC2F3E
:100FC000F0E0EE0FFF1FEF50F24FA591B4918FB7F5
:100FD000F894EC91111108C0D095DE23DC938FBFFB
:100FE000DF91CF911F910895DE2BF8CFCF93DF9340
:100FF00090E0FC01E15FF14F24918550924FFC019C
:1010000084918823D1F090E0880F991FFC01E85368
:10101000F24FA591B491FC01EF50F24FC591D491DC
:1010200061110EC09FB7F8948C91E22FE0958E234A
:101030008C932881E223E8839FBFDF91CF910895AD
:101040008FB7F894EC91E22BEC938FBFF6CF4F92D1
:101050005F926F927F928F929F92AF92BF92CF9248
:10106000DF92EF92FF920F931F93CF93DF9300D005
:1010700000D01F92CDB7DEB78C012A013B018091D1
:101080001A058C30C9F08F3F09F47FC00F900F9084
:101090000F900F900F90DF91CF911F910F91FF90C4
:1010A000EF90DF90CF90BF90AF909F908F907F9008
:1010B0006F905F904F900895E6EEFDE084918D83F0
:1010C00087FDE4CF61E08CE00E94F6078D818823E4
:1010D00021F09D81923009F05CC14801B12CA12C16
:1010E00060E072E18AE790E0A50198010E94E42B9C
:1010F00029833A834B835C8369017A0181E0C81AB2
:10110000D108E108F1089FEFC916D104E104F10408
:1011100009F00CF413C160E472E48FE090E0A501E3
:1011200098010E94E42B69017A0181E0C81AD10874
:10113000E108F1089D81923009F098C08FEFC81640
:10114000D104E104F10409F00CF4DDC160E970EDB3
:1011500083E090E0A50198010E94E42B69017A01E7
:1011600091E0C91AD108E108F1088FEFC816D1043F
:10117000E104F10411F00CF0A3C183E09091B100FF
:10118000987F892B8093B100E1C08CE080931A0591
:10119000E6EEFDE094919D839F3F09F477CF913077
:1011A00029F158F0923009F43FC08D8187FD6ECF50
:1011B00061E08CE00E94F6078CCF14BC15BC84B5AE
:1011C000826084BD85B5816085BDE7E0FEE0E49185
:1011D000F0E0EE0FFF1FEF50F24F85919491EBE19D
:1011E000FEE0E491E09334071D826CCF1092800002
:1011F00010928100809181008860809381008091AD
:101200008100816080938100E7E0FEE0E491F0E0FE
:10121000EE0FFF1FEF50F24F85919491EBE1FEE04E
:10122000E491E09333074ECF1092B0001092B100DA
:101230008091B00082608093B0008091B1008160A5
:101240008093B100E7E0FEE0E491F0E0EE0FFF1FD5
:10125000EF50F24F8591949190933207809331072C
:10126000EBE1FEE0E491E09330072CCF9FEFC9164D
:10127000D104E104F10409F00CF489C068E478EECB
:1012800081E090E0A50198010E94E42B69017A01B8
:1012900081E0C81AD108E108F1089D81992309F479
:1012A00028C19FEFC916D104E104F10409F00CF440
:1012B0001EC162E17AE780E090E0A50194010E94FE
:1012C000E42B69017A0181E0C81AD108E108F1082C
:1012D0009D81992309F4EBC08FEFC816D104E10476
:1012E000F10411F008F0BFC086E048CF64E274EF6B
:1012F00080E090E0A50194010E94E42B69017A014D
:1013000081E0C81AD108E108F10885E09FEFC9160D
:10131000D104E104F10409F008F430CF62E17AE786
:1013200080E090E0A50194010E94E42B69017A011C
:1013300091E0C91AD108E108F108CECF81E09D8182
:1013400091111CCF95B5987F892B85BD2FEF3FEF6D
:10135000A901411451046104710409F043C09D8145
:10136000913009F45EC0923009F46DC091118ECEB7
:10137000C7BC20933D0730933E0740933F075093EF
:10138000400780916E00826080936E007FCE82E085
:10139000D6CFB12CA12C60E072E18AE790E0A501E4
:1013A00098010E94E42B69017A0181E0C81AD108F2
:1013B000E108F108C114D10491E0E906F10404F553
:1013C00091E08D81813011F680918100887F892B99
:1013D000809381002FEF3FEFA90141145104610474
:1013E0007104F9F0D801AA0FBB1FA30192010E945A
:1013F000032C28EE33E040E050E00E944D2CAFCFAC
:1014000068E478EE81E090E0A50198010E94E42B69
:1014100069017A0181E0C81AD108E108F10893E076
:10142000D0CFD0928900C0928800209339073093A2
:101430003A0740933B0750933C0780916F008260CE
:1014400080936F0023CEC092B30020933507309372
:1014500036074093370750933807809170008260B9
:101460008093700013CEC980DA80EB80FC809AE014
:10147000F594E794D794C7949A95D1F791E0C91A57
:10148000D108E108F10887E079CEC980DA80EB80E5
:10149000FC808AE0F594E794D794C7948A95D1F7B5
:1014A00091E0C91AD108E108F10885E04BCF8FEF30
:1014B000C816D104E104F10409F038F784E042CF02
:1014C00068E478EE81E090E0A50198010E94E42BA9
:1014D00069017A0191E0C91AD108E108F1088FEF9A
:1014E000C816D104E104F10411F00CF0FFCE84E041
:1014F00045CE8FEFC816D104E104F10411F00CF0D1
:10150000D8CE83E01FCF82E039CE3FB7F8948091E8
:10151000D8069091D906A091DA06B091DB0626B5DF
:10152000A89B05C02F3F19F00196A11DB11D3FBF1B
:10153000BA2FA92F982F8827BC01CD01620F711DEA
:10154000811D911D42E0660F771F881F991F4A95E4
:10155000D1F708958F929F92AF92BF92CF92DF9270
:10156000EF92FF926B017C010E94850A4B015C01A6
:10157000C114D104E104F104B9F00E94850A68198C
:1015800079098A099B09683E73408105910580F3BA
:1015900021E0C21AD108E108F10888EE880E83E044
:1015A000981EA11CB11CE4CFFF90EF90DF90CF906C
:1015B000BF90AF909F908F900895089508950895DB
:1015C00090911A0589130BC0E6EEFDE0E4919FEFC0
:1015D00090931A05E13049F028F0E23061F060E0C4
:1015E0000C94C80710926E00FACF90916F009D7F07
:1015F00090936F00F4CF909170009D7F9093700056
:1016000091E09093B0009091B100987F9460909396
:10161000B1001092B300E3CFAF92BF92CF92DF92AE
:10162000EF92FF920F931F93CF93DF936C017B0197
:101630008B01040F151FEB015E01AE18BF08C01728
:10164000D10759F06991D601ED91FC910190F0819B
:10165000E02DC6010995892B79F7C501DF91CF915E
:101660001F910F91FF90EF90DF90CF90BF90AF90C0
:1016700008952091A4063091A5062817390771F422
:101680009091A2068091A306981741F0E091A206DE
:10169000F0E0E656F94F808190E008958FEF9FEFDC
:1016A0000895EF92FF920F931F93CF93DF93DC0186
:1016B0005C96ED90FC905D97E114F10479F481E083
:1016C00090E013969C938E93129790E080E0DF91C8
:1016D000CF911F910F91FF90EF9008955196ED914A
:1016E000FC91529750968C915097982F90950FB7E8
:1016F0005E962C915E97122F127021FD6095F894E2
:101700002081112319F1282B2083E7012197F1F77C
:1017100028E0462F50E0308160FF1AC0382B30831C
:10172000E7012197F1F7BA0175956795215089F77F
:10173000112381F08081892380830FBF5C968D9176
:101740009C910197F1F781E090E0C1CF2923DCCF94
:101750003923E5CF9081892BEFCF2091A4063091DA
:10176000A5062817390759F48091A3062091A206EF
:1017700090E00896821B910987709927089590E060
:1017800080E008952091A4063091A5062817390716
:10179000B9F49091A2068091A306981789F0E09180
:1017A000A206F0E0E656F94F80812091A20630E0D3
:1017B0002F5F3F4F277033272093A20690E00895B4
:1017C0008FEF9FEF08952FB7F8948091DC069091EA
:1017D000DD06A091DE06B091DF062FBF809355078E
:1017E00090935607A0935707B09358078DE497E05E
:1017F0000E94C20B97FF26C02FB7F8948091DC0699
:101800009091DD06A091DE06B091DF062FBF4091DA
:101810005507509156076091570770915807841BE0
:10182000950BA60BB70B4091510750915207609151
:1018300053077091540784179507A607B707B0F2AE
:101840008FEF9FEF08950F931F93CF93DF93EC01DA
:101850008E89823009F453C0833009F4ACC08130E2
:1018600009F05CC0EC81FD81E41BF50BAF01421B6C
:10187000530B77FD3FC08E819F8168177907D4F5A0
:1018800057FF04C0240F351F50E040E08C819D813C
:10189000FA01E20FF31F8E179F071CF49C01241B13
:1018A000350B1216130634F5FB0177FD3796A3E0CE
:1018B000F595E795AA95E1F7F695FE2FEE27F795B2
:1018C000E795E40FF51FE65EFE4F6770772781E02E
:1018D00090E001C0880F6A95EAF7482F01301105A2
:1018E00009F472C008F47CC02E0F3F1F02301105AE
:1018F00009F483C0DF91CF911F910F910895AC81BE
:10190000BD81CD01861B970BBC0161507109EE8131
:10191000FF81E41BF50BAF01421B530B77FDEACFB0
:101920008C819D81681779072CF757FF04C0240F1D
:10193000351F50E040E08E819F81FA01E20FF31FD6
:101940008E179F071CF49C01241B350B12161306DF
:101950008CF6922FA42FA695A695A69580E8A89F11
:10196000D0011124A60FB71FA65EBE4F477009F421
:1019700057C058E0541B452F652F70E0FB01E35D15
:10198000FA4F8081251708F0B0C0621B71092FEF54
:1019900030E002C0359527956A95E2F78223013041
:1019A0001105A9F108F464C00230110509F0A2CFB5
:1019B0002C9182272EC0AE81BF81CD01861B970B53
:1019C000BC016150710955CF2E0F3F1FE217F3077D
:1019D00009F490CF8191DF011197842B8C93F6CF7E
:1019E00080952E0F3F1FE217F30709F483CF9191E3
:1019F000DF01119798239C93F6CFE217F30709F4C0
:101A000079CF8191DF01119784278C93F6CF2C91A8
:101A1000822B8C93941708F46DCF941BA058BF4F62
:101A2000983008F447C00230110531F5FD01892FC7
:101A3000208120952083E058FF4F88508830C0F7E0
:101A400028EF290F26952695269530E02F5F3F4FEA
:101A50003695322F222737952795A20FB31F9770FF
:101A600009F448CFE92FF0E0EB5DFA4F808132C0F6
:101A700080952C918223CDCF81E00130110509F0B2
:101A800080E08195FD01292F8083E058FF4F285089
:101A90002830D0F728EF290F26952695269530E097
:101AA0002F5F3F4F3695322F222737952795A20F6C
:101AB000B31F9770992309F41DCFE92FF0E0EB5D78
:101AC000FA4F80810130110541F058F002301105C4
:101AD00009F010CF9C91892702C09C91892B8C938F
:101AE00009CF80959C918923FACF0130110509F423
:101AF0008ECF08F4BDCF0230110509F459CF8DCF38
:101B00000F931F93CF93DF93EC018E89823009F4FA
:101B10005EC0833009F4B5C0813009F067C0AC8184
:101B2000BD81CD01841B950BAC014150510957FD7E
:101B300049C08C819D81481759070CF043C077FF3D
:101B400004C0260F371F70E060E08E819F81FB018B
:101B5000E20FF31F8E179F071CF49C01261B370B07
:101B6000121613067CF5922FA62FA695A695A6957C
:101B700080E8A89FD0011124A40FB51FA65EBE4F18
:101B8000677009F48FC048E0461B642F70E0FB01CA
:101B9000E35DFA4F8081241708F002C1621B7109CE
:101BA0002FEF30E002C0359527956A95E2F7822342
:101BB0000130110509F46DC008F49CC00230110514
:101BC00009F4F8C0DF91CF911F910F910895EC8136
:101BD000FD81E61BF70BAE81BF81CD01841B950B08
:101BE000AC0141505109BF01621B730B57FDEACF95
:101BF0008E819F81481759072CF777FF04C0260F65
:101C0000371F70E060E08C819D81FB01E20FF31FC4
:101C10008E179F071CF49C01261B370B1216130608
:101C20008CF6FA0157FD379693E0F595E7959A956E
:101C3000E1F7F695FE2FEE27F795E795E60FF71FEC
:101C4000E65EFE4F4770552781E090E001C0880FA7
:101C50004A95EAF7482F0130110509F488C008F4C5
:101C600092C02E0F3F1F0230110509F0ABCFE217D3
:101C7000F30709F4A7CF8191DF01119784278C9393
:101C8000F6CFEE81FF81E61BF70BBF01621B730BE2
:101C90004ECF2C91822B8C93941708F493CF941BE6
:101CA000A058BF4F983008F447C00230110531F5F5
:101CB000FD01892F208120952083E058FF4F885017
:101CC0008830C0F728EF290F26952695269530E015
:101CD0002F5F3F4F3695322F222737952795A20F3A
:101CE000B31F977009F46ECFE92FF0E0EB5DFA4F68
:101CF000808132C080952C918223CDCF81E001304C
:101D0000110509F080E08195FD01292F8083E058BD
:101D1000FF4F28502830D0F728EF290F2695269519
:101D2000269530E02F5F3F4F3695322F222737958B
:101D30002795A20FB31F9770992309F443CFE92F7A
:101D4000F0E0EB5DFA4F80810130110541F058F071
:101D50000230110509F036CF9C91892702C09C9171
:101D6000892B8C932FCF80959C918923FACF2E0FAE
:101D70003F1FE217F30709F425CF8191DF01119787
:101D8000842B8C93F6CF80952E0F3F1F2E173F0785
:101D900009F418CF9191DF01119798239C93F6CF06
:101DA0000130110509F475CF08F4A4CF02301105F4
:101DB00009F075CF2C9182276ECFDC0177FD67C0CB
:101DC00018968D919C911997681779070CF05FC050
:101DD00057FD5DC01A968D919C911B974817590726
:101DE0000CF055C056968C9156978230B9F08330DE
:101DF00041F1813049F414968D919C91841B950B8F
:101E0000AB01BC01615071092130310521F108F4A9
:101E10003FC02230310509F458C008951496ED9161
:101E2000FC911597E61BF70BBF01615071091696DF
:101E30008D919C91FC01E41BF50BAF0141505109C0
:101E4000E3CF16968D919C91861B970BBA01AC013E
:101E500041505109D9CFFA0157FD3796A3E0F595C6
:101E6000E795AA95E1F7F695FE2FEE27F795E7950A
:101E7000E60FF71FE65EFE4F4770552721E030E082
:101E800001C0220F4A95EAF78081822B8083089552
:101E9000FA0157FD379623E0F595E7952A95E1F786
:101EA000F695FE2FEE27F795E795E60FF71FE65E0E
:101EB000FE4F4770552781E090E001C0880F4A959A
:101EC000EAF7809590818923E1CFFA0157FD379693
:101ED00083E0F595E7958A95E1F7F695FE2FEE27D5
:101EE000F795E795E60FF71FE65EFE4F477055271B
:101EF00021E030E001C0220F4A95EAF78081822775
:101F0000C5CF0895FC016370668B8481958126811D
:101F10003781613039F0633029F0918780873387CA
:101F200022870895318720879387828708952F928B
:101F30003F924F925F926F927F928F929F92AF9259
:101F4000BF92CF92DF92EF92FF920F931F93CF93A6
:101F5000DF93CDB7DEB76A970FB6F894DEBF0FBE3A
:101F6000CDBF9A8F898F7A8369834A01D22E1887D1
:101F70000F833701BC2CDC0159962D913C915A9767
:101F80002115310509F015C118968D919C9119976D
:101F9000681779070CF0D7C11A968D919C91481754
:101FA00059070CF0D0C14C2C512CB6E0CB9E600DE3
:101FB000711D11247C876B87161617060CF0C3C1A0
:101FC000EA2DF0E0FA87E98793E0EE0FFF1F9A957C
:101FD000E1F7F88BEF87CF01840F951F18161906CC
:101FE0000CF0B1C1A98DBA8D58968C91811104C0A5
:101FF000BFEABD1508F4D394A98DBA8DED91FC917B
:1020000011970284F385E02DCD010995B5E0DB9EA3
:10201000C0011124E981FA81FC83EB83312C212C4E
:102020009C012158384F388F2F8B4A2D50E05E8B02
:102030004D8BEF89F88DE20DF31D44919E828D82C8
:10204000D12CC12C69817A81620D731D7A8B698BC9
:10205000842F90E09C8B8B8BE98DFA8DA081B181D0
:1020600040FF82C0F1E0BF126FC0AF126DC01C967E
:10207000ED91FC912F813885A4014C0D5D1D69897E
:102080007A89898D9A8D0995EB89FC89F595E79573
:102090004E2F5FEFC51AD50A6D817E818D899E898D
:1020A000680F791F7E836D8398E0C916D10481F68D
:1020B000AFEF2A1A3A0AEB81FC81E40DF51DFC838F
:1020C000EB83F5E02F16310409F0B3CF2F8138856B
:1020D00026153705B9F0A98DBA8DED91FC91B1E0C7
:1020E000BB1257C0AB1255C069817A816B5F7F4FBD
:1020F0000088F189E02D830128E030E0A401898D7A
:102100009A8D0995A98DBA8DED91FC91119706884C
:10211000F789E02DCD016A960FB6F894DEBF0FBEA9
:10212000CDBFDF91CF911F910F91FF90EF90DF9086
:10213000CF90BF90AF909F908F907F906F905F9067
:102140004F903F902F9009941E96ED91FC91EF8057
:10215000F88409851A8592014D815E816B817C81AD
:10216000898D9A8D099590CF2F8138852615370551
:1021700009F48ACF31E0B31207C0A31205C01C9640
:10218000ED91FC91930178CF1E96ED91FC91730136
:10219000E0CF6B857C85641975090684F785E02D91
:1021A00073010F8518899201A401898D9A8D099573
:1021B000A9CFF90134969491329745915491D91A47
:1021C000B7E0DB9E400D511D1124F901259134919A
:1021D0003C8B2B8BFA0125903490FA013296749047
:1021E00031963491398B329664903196449041E027
:1021F0004C1518F04A1508F07FC0662D062C000C0F
:10220000770B7C836B83842D042C000C990B9E83AD
:102210008D83A98DBA8DED91FC9111970284F38580
:10222000E02DCD010995512CD12CC12CEA2DF0E0E7
:10223000FA87E9872B2D30E03C872B87A401440DDA
:10224000511D47FC5A95588F4F8B69817A81660DD5
:10225000711D67FC7A957E876D877989C71608F0AE
:1022600051CF2C2D30E04D815E81420F531FA98547
:10227000BA854A9FC0014B9F900D5A9F900D112423
:10228000FC01E80DF91DF88BEF87852D612C4F8936
:10229000588D420F531F5E8B4D8B671408F050C052
:1022A00044244394480E877041F4C1010196EB89A0
:1022B000FC89E20DF31DD4901C01D7FE19C0A98D35
:1022C000BA8DED91FC91662D70E0B1E0BB1219C0A2
:1022D000AB1217C02D853E85620F731F0484F585F0
:1022E000E02D2F8138854D895E89898D9A8D0995DC
:1022F000DD0C6394842DD1CF1E821D821C821B8233
:1023000088CF4B815C81640F751FAB85BC856A9F4C
:10231000C0016B9F900D7A9F900D112469817A8185
:10232000680F791F0684F785E02DEF80F884098512
:102330001A859D014F855889898D9A8D0995D8CF29
:10234000570CC3948ACF6A960FB6F894DEBF0FBEBF
:10235000CDBFDF91CF911F910F91FF90EF90DF9054
:10236000CF90BF90AF909F908F907F906F905F9035
:102370004F903F902F9008958F929F92AF92CF925F
:10238000EF92FF920F931F93CF93DF93EC01262FD1
:10239000898D9A8D009709F051C06A30D1F41D865D
:1023A0001C868D8948E0849F900111248E859F852D
:1023B000820F931F9F878E8781E090E0DF91CF91FE
:1023C0001F910F91FF90EF90CF90AF909F908F90C3
:1023D00008956D3089F3CC88AD888F898823C1F04A
:1023E0008C859D8536E0C39E800D911D1124488506
:1023F00059854817590764F44E855F851D861C86EC
:1024000038E0A39EC0011124840F951F9F878E87FB
:10241000EA88FB88088919894E855F856C857D85EA
:10242000CE010E94970F2C898C859D8546E0249FC4
:10243000800D911D11249D878C87BECF6A3069F471
:102440001D861C86FC013896E4912D898E859F851A
:10245000E29F800D911D1124ADCF6D3009F4ACCFFA
:10246000FC0134963491631708F4A6CF3296E491B8
:10247000E61708F4A1CFFC01329685909490462F80
:10248000431B342F47E0349F800C911C1124F4012E
:10249000329634913196E4913323A9F1EE2399F1E8
:1024A000CC88F4013596E491AD884F89442301F13D
:1024B0000E2E000CFF0BE30FF11DCE9EA001CF9E50
:1024C000500D11246C857D85460F571F68857985D1
:1024D000641775076CF44E855F851D861C86FC01AC
:1024E0003896E491AE9E400D511D11245F874E87B2
:1024F000EA88FB88088919894E855F856C857D850A
:10250000CE010E94970FF4013496E4912C898C85BA
:102510009D85E29F800D911D11248DCF6F927F923A
:102520008F929F92AF92BF92CF92DF92EF92FF92E3
:102530000F931F93CF93DF93EC016B015A01390185
:102540004801E881F9810284F385E02D0995E8814D
:10255000F9810288F389E02D87019301A501B60175
:10256000CE010995A501480D591D41505109E88139
:10257000F9810288F389E02D9301B601CE01099516
:10258000E881F9810088F189E02D9401A501B60167
:10259000CE010995C60CD71CB60161507109E881BE
:1025A000F9810088F189E02D9401A501CE010995FA
:1025B000E881F9810688F789E02DCE01DF91CF917E
:1025C0001F910F91FF90EF90DF90CF90BF90AF9051
:1025D0009F908F907F906F9009946F927F928F92CF
:1025E0009F92AF92BF92CF92DF92EF92FF920F93A2
:1025F0001F93CF93DF935C01EB016A01490138011E
:102600008701DC01ED91FC916217730719F56416DF
:1026100075062CF0962D872D3A01C92ED82E9601DD
:10262000261937092F5F3F4F048CF58DE02DA3014C
:10263000BE01C5010995DF91CF911F910F91FF90C8
:10264000EF90DF90CF90BF90AF909F908F907F9052
:102650006F9008954615570591F42617370724F013
:10266000892D4B01C22FD82F9E01281939092F5FC0
:102670003F4F068CF78DE02DA601B401DACF02841E
:10268000F385E02D0995D501ED91FC910488F5893C
:10269000E02D83019401A601BE01C5010995D50174
:1026A000ED91FC910688F789E02DC501DF91CF916E
:1026B0001F910F91FF90EF90DF90CF90BF90AF9060
:1026C0009F908F907F906F900994EF92FF920F935D
:1026D0001F93DC011A960D911C911B9718962D9152
:1026E0003C911997ED91FC9100A0F1A1E02D7B01A7
:1026F00050E040E070E060E009951F910F91FF907D
:10270000EF9008954F925F926F927F928F929F9277
:10271000AF92BF92CF92DF92EF92FF920F931F93EF
:10272000CF93DF936C012B015A0139014801DC0181
:10273000ED91FC910284F385E02D0995E201640C92
:10274000751CD601ED91FC91C615D7055CF4008887
:10275000F189E02D87019401A501BE01C60109950B
:102760002196EFCF0688F789E02DC601DF91CF9142
:102770001F910F91FF90EF90DF90CF90BF90AF909F
:102780009F908F907F906F905F904F9009948F9261
:102790009F92AF92BF92CF92DF92EF92FF920F93F0
:1027A0001F93CF93DF93EC015B014A016901E8813C
:1027B000F9810284F385E02D099595012C0D3D1DCD
:1027C00021503109E881F9810488F589E02D7801EB
:1027D0008401A401B501CE010995E881F98106883B
:1027E000F789E02DCE01DF91CF911F910F91FF90DE
:1027F000EF90DF90CF90BF90AF909F908F90099413
:102800008F929F92AF92BF92CF92DF92EF92FF9200
:102810000F931F93CF93DF93EC015B014A01690192
:102820007801E881F9810284F385E02D0995C80CCF
:10283000D91C860101501109E881F9810488F589C4
:10284000E02D9501A401B501CE010995E881F9813A
:102850000688F789E02DCE01DF91CF911F910F916E
:10286000FF90EF90DF90CF90BF90AF909F908F90B0
:102870000994EF92FF920F931F93DC01ED91FC916D
:1028800000A0F1A1E02D09951F910F91FF90EF900D
:1028900008950F931F93DC01ED91FC91068CF78D49
:1028A000E02D09951F910F9108950F931F93DC015F
:1028B000ED91FC91048CF58DE02D09951F910F9100
:1028C00008952F923F924F925F926F927F928F92D4
:1028D0009F92AF92BF92CF92DF92EF92FF920F93AF
:1028E0001F93CF93DF93CDB7DEB72A970FB6F89437
:1028F000DEBF0FBECDBF3C017E836D835A87498703
:1029000029019A01220F331F2F5F3F4FAB018985A9
:102910009A85481B590B8201B3018CE697E00E940F
:10292000551481E090E01C0129853A85221A330A6A
:10293000C9019195819591099C01220F331F3C8318
:102940002B83F12CE12C81E090E09A8389832D8107
:102950003E812F5F3F4F38872F8389859A85E81600
:10296000F9060CF060C0C984DA8437FC0CC06C0135
:1029700091E0C91AD1082B813C812E5F3F4F3C83E7
:102980002B83220E331E3FEFE31AF30A89819A81CB
:1029900002969A838983280E391ECE14DF04ECF048
:1029A0004601880C991C9FEF891A990A82019401AB
:1029B000AD80BE80AC18BD08A501B3016E0D7F1DB2
:1029C0008CE697E00E9455149401A501B3016E199D
:1029D0007F098CE697E00E94551429853A852C15CD
:1029E0003D05F1F0B901660D771D820189809A805D
:1029F00032E0831A91089401AF80B884AE18BF0802
:102A0000A5018CE697E00E945514B30189859A854B
:102A1000681B790B9401A5018CE697E00E94551480
:102A2000DA86C9869ACF2A960FB6F894DEBF0FBE13
:102A3000CDBFDF91CF911F910F91FF90EF90DF906D
:102A4000CF90BF90AF909F908F907F906F905F904E
:102A50004F903F902F900895DC01ED91FC91008400
:102A6000F185E02D09943F924F925F926F927F9291
:102A70008F929F92AF92BF92CF92DF92EF92FF928E
:102A80000F931F93CF93DF935C017B014A01690190
:102A9000390187E0680E711C93E0759467949A95EC
:102AA000E1F72B01400E511E10E000E0312CD0E088
:102AB000C0E0CE0187709927330C892B59F4FE01B1
:102AC00083E0F595E7958A95E1F7E00FF11FE80DB2
:102AD000F91D349037FE0AC021E030E0A701B501AE
:102AE0006C0F7D1F8CE697E00E942C152196CC166A
:102AF000DD06F9F68FEFE81AF80A060D171DE41443
:102B0000F504A9F6DF91CF911F910F91FF90EF90FF
:102B1000DF90CF90BF90AF909F908F907F906F90FD
:102B20005F904F903F9008952F923F924F925F9207
:102B30006F927F928F929F92AF92BF92CF92DF92CD
:102B4000EF92FF920F931F93CF93DF9300D000D0AB
:102B5000CDB7DEB77C018B015C834B8381E090E0D5
:102B60005C01A41AB50A1A01319421943108220C8F
:102B7000331C460F571F21E030E0B7018CE697E089
:102B80000E942C15A8012B813C81421B530B21E094
:102B900030E0B7018CE697E00E942C156B817C81B8
:102BA0006E0D7F1D21E030E0A8018CE697E00E94C9
:102BB0002C15B7018B819C81681B790B21E030E0DB
:102BC000A8018CE697E00E942C1521E030E03A83C2
:102BD0002983D12CC12CB7FC0AC08B819C81019721
:102BE0009C838B8392E0290E311CA20CB31C2FEF27
:102BF000C21AD20A89819A8102969A838983A80E81
:102C0000B91E36016E0C7F1C21E030E08B809C8069
:102C1000800E911EA401B3018CE697E00E942C1552
:102C200027014C185D0821E030E0A401B2018CE6D8
:102C300097E00E942C1521E030E048018B819C81B7
:102C4000881A990AA401B3018CE697E00E942C151A
:102C500021E030E0A401B2018CE697E00E942C153F
:102C60004601800E911E21E030E0A4016B807C8043
:102C70006E0C7F1CB3018CE697E00E942C1521E0BE
:102C800030E0A40127018B819C81481A590AB201C6
:102C90008CE697E00E942C1548018C189D0821E0D5
:102CA00030E0A401B3018CE697E00E942C1521E0EE
:102CB00030E0A401B2018CE697E00E942C152B8134
:102CC0003C81C216D3060CF486CF0F900F900F9064
:102CD0000F90DF91CF911F910F91FF90EF90DF90B8
:102CE000CF90BF90AF909F908F907F906F905F90AC
:102CF0004F903F902F9008952F923F924F925F9266
:102D00006F927F928F929F92AF92BF92CF92DF92FB
:102D1000EF92FF920F931F93CF93DF9300D000D0D9
:102D200000D0CDB7DEB73C016A013E832D83FC8223
:102D3000EB825801A41AB50AB7FE03C0B194A1945E
:102D4000B1088D809E80861A970A97FE03C09194E1
:102D5000819491088A149B045CF0902F812F0D813F
:102D60001E819D838E839C2D8D2D6B01692F782F65
:102D70000C151D055CF09D818E817E836D83692F0E
:102D8000782F902F812F8601C92ED82E1601201A58
:102D9000310A2B012D813E81421A530A57FE03C08E
:102DA000519441945108710137FE03C03FEFE31A7B
:102DB000F30AF594E7948D819E81861797075CF559
:102DC000A1E0B0E0BA83A983C016D1064CF1D301CB
:102DD000ED91FC910484F585E02D2B813C81A801C7
:102DE0006D817E818A149B041CF04D815E81B80147
:102DF000C3010995E418F508F7FE0AC02D813E814C
:102E000089819A81280F391F3E832D83E20CF31CA0
:102E10000F5F1F4FD9CF2FEF3FEF3A832983D4CFD6
:102E200026960FB6F894DEBF0FBECDBFDF91CF91CF
:102E30001F910F91FF90EF90DF90CF90BF90AF90D8
:102E40009F908F907F906F905F904F903F902F90CA
:102E5000089520917706260F3327331F213231053D
:102E6000ECF420910607FC0190E080E0243069F04A
:102E700082E00895A09177062191AC01495A594FFB
:102E8000A40FB52FB11D2C930196861798F380914E
:102E90007706680F6093770680E0089581E00895D3
:102EA0001092060781E0809305071092E00661E02A
:102EB00082E10E94C80761E083E10E94C807E9EB54
:102EC000F0E080818E7F808380818D7F808388E4A5
:102ED0008093B80085E48093BC000895CF93DF937E
:102EE00091E0909356068823B9F0C091B800D09134
:102EF000BA008091BC008A7B8093BC0060E082E1D4
:102F00000E94C80760E083E10E94C8070E94501732
:102F1000D093BA00C093B800DF91CF910895CF92BB
:102F2000DF92EF92FF920F931F93CF93DF93D09195
:102F30002F0781E0D13208F09CC0C0912E070E947B
:102F4000850A6B017C018091060781116CC082E0CB
:102F50008093060781E0809305078FEF8093040735
:102F600010920307D0930207AEE0B7E0E2EEF6E07E
:102F700080E0D8138DC01092E1068091E106CC0F5D
:102F8000C82BC093E1068091E006813009F084C02F
:102F90001092E0060E94850A6B017C018091E10697
:102FA0008093BB008091080790910907A0910A07C0
:102FB000B0910B07892B8A2B8B2BA1F00E94850ADD
:102FC000009108071091090720910A0730910B071B
:102FD0006C197D098E099F090617170728073907FD
:102FE00008F442C08091BC0083FDD8CF85EC80936B
:102FF000BC000E94850A6B017C018091060782302B
:1030000009F44CC0809104078F3F09F469C0809196
:103010000407803209F466C080910407803309F404
:1030200063C084E026C08091080790910907A091B1
:103030000A07B0910B07892B8A2B8B2B09F483CFBE
:103040000E94850A009108071091090720910A073C
:1030500030910B076C197D098E099F090617170718
:103060002807390708F06FCF809107070E946E1775
:1030700085E010920D0710922F0710920C07DF9138
:10308000CF911F910F91FF90EF90DF90CF90089517
:103090009D9191938F5F6DCF85EEA9CF80910807A9
:1030A00090910907A0910A07B0910B07892B8A2BF1
:1030B0008B2B09F4A2CF0E94850A0091080710917A
:1030C000090720910A0730910B076C197D098E09B9
:1030D0009F09061717072807390708F08ECFC4CFB6
:1030E00080E0C7CF82E0C5CF83E0C3CFE091AB06DD
:1030F0008091AA06E81730F4F0E0EA5CF94F80818D
:1031000090E008958FEF9FEF08959091AB06809126
:10311000AA062FEF3FEF981748F4E92FF0E0EA5C9A
:10312000F94F208130E09F5F9093AB06C90108956D
:103130008091AA069091AB06891B990B0895CF92B6
:10314000DF92EF92FF920F931F93CF93DF937C0157
:10315000CB018A0120910C07222389F0EB016B013E
:10316000C40ED51ECC15DD0569F06991D701ED912E
:10317000FC910190F081E02DC7010995F3CF642FF8
:103180000E942917C801DF91CF911F910F91FF90E5
:10319000EF90DF90CF900895CF93DF931F92CDB73C
:1031A000DEB7698320910C072223F9F020912F07C5
:1031B000203258F021E030E0FC013383228390E09C
:1031C00080E00F90DF91CF91089580910D07E82F57
:1031D000F0E0E25FF84F998190838F5F80930D0755
:1031E00080932F0781E090E0ECCF61E0CE01019663
:1031F0000E942917F7CFCF93C82F809189078F3F5F
:10320000B1F1E0919307F091940780819091990733
:10321000892B8083E0919507F091960790818091AA
:103220009A07809589238083E0919307F091940712
:1032300090818091990780958923808380918E0762
:10324000882389F0CEBD00000DB407FEFDCF8EB5FA
:10325000E0919307F0919407808190919907892BD1
:103260008083CF9108958C2F0E943E07F1CF8091EB
:10327000870791E090930C0780932E0710920D071B
:1032800010922F0760E081E497E00E94CC186C2F29
:1032900081E497E00E94CC18CF910C948F178F9205
:1032A0009F92AF92BF92CF92DF92EF92FF920F93D5
:1032B0001F93CF93DF9380E00E94FB1880E10E9470
:1032C000FB1880E40E94FB18809189078F3F09F466
:1032D0006BC030EBF32ED0E0C0E08F2D0E94FB18C6
:1032E00082E00E94FB1880E10E94FB1810E000E0E1
:1032F000CE01865E9E4F6C01E0919307F09194079A
:10330000808190919907892B8083E0919507F091B6
:103310009607808190919A07892B8083E09193078B
:10332000F0919407908180919907809589238083FB
:103330005601A00EB11E20E1E22EF50181915F0140
:1033400090918E07992369F18EBD00000DB407FEA0
:10335000FDCF8EB5EA94E110F0CFE0919307F091A4
:103360009407808190919907892B8083005F1F4F7C
:103370000038110509F0C0CFC058DF4FF394C115D4
:10338000F4E0DF0709F0A9CFDF91CF911F910F91F2
:10339000FF90EF90DF90CF90BF90AF909F908F9075
:1033A00008950E943E07D6CF9090B8008CE080939D
:1033B000B80090EBF92ED0E0C0E0882483948F2DE4
:1033C0000E94FB1882E00E94FB1880E10E94FB181B
:1033D00010E000E0CE01865E9E4F5C018091870781
:1033E00080920C0780932E0710920D0710922F07E2
:1033F00060E481E497E00E94CC186501C00ED11E04
:1034000080E1E82EF60161916F0181E497E00E946E
:10341000CC18EA94E110F6CF0E948F17005F1F4F7F
:1034200000381105D9F6C058DF4FF394C115F4E008
:10343000DF0729F69092B800A7CF90E080E00895CA
:10344000CF92DF92EF92FF926B01770FEE08FF08A9
:10345000B701A6010E942708C701B6010E94AA0A67
:103460008CE00E94E00A62E370E080E090E0FF9070
:10347000EF90DF90CF900C94AA0AEAE1F1E080E0AF
:1034800094E0DF019C011D9221503040E1F7089546
:10349000FB0101900020E9F73197AF01461B570B64
:1034A000DC01ED91FC910280F381E02D09948F9273
:1034B0009F92AF92BF920F931F93CF93DF93CDB79D
:1034C000DEB7A1970FB6F894DEBF0FBECDBF19A22D
:1034D000423008F44AE08E010F5D1F4F842E912C7C
:1034E000B12CA12CA50194010E944D2CE62FB9010D
:1034F000CA01EA3004F5E05DD801EE938D01232B7B
:10350000242B252B79F790E080E0109729F0BD015E
:103510008CE697E00E94481AA1960FB6F894DEBF99
:103520000FBECDBFDF91CF911F910F91BF90AF9094
:103530009F908F900895E95CDFCFCF92DF92EF925A
:10354000FF92CF93DF936C01990FEE08FF08F7FE0F
:1035500021C06DE28CE697E00E94BC11EC01662769
:103560007727CB016C197D098E099F094AE00E94DB
:10357000571AC80FD91F65E875E08CE697E00E94DE
:10358000481A8C0F9D1FDF91CF91FF90EF90DF9035
:10359000CF9008954AE0C701B6010E94571AEC0186
:1035A000EACFCF93DF93BC018CE697E00E94481AE4
:1035B000EC0165E875E08CE697E00E94481A8C0FF4
:1035C0009D1FDF91CF910895CF93DF93EC01888108
:1035D0009981009711F00E94482D198218821D824E
:1035E0001C821B821A82DF91CF910895FC01808199
:1035F0009181009711F00C94482D08950E948E2E11
:103600000F931F93CF93DF93EC01888199810097EB
:1036100059F02A813B812617370730F081E0DF918E
:10362000CF911F910F9108958B016F5F7F4F0E9483
:10363000D12D009759F0998388831B830A832C81AD
:103640003D81232B59F7FC011082E8CF80E0E7CFC2
:10365000EF92FF920F931F93CF93DF936115710544
:1036600041F480E0DF91CF911F910F91FF90EF9097
:10367000089541155105B1F07B01EC010C811D81CC
:10368000040F151FB8010E94001B882351F32881E5
:1036900039818C819D81B701820F931F0E94A72ED3
:1036A0001D830C8381E0DECFEF92FF920F931F9377
:1036B000CF93DF93EC017B018A01BA010E94001BCA
:1036C00081110BC0CE010E94E41ACE01DF91CF918F
:1036D0001F910F91FF90EF9008951D830C83B70108
:1036E000888199810E94A72EF0CFEF92FF920F93CD
:1036F0001F93CF93DF93CDB7DEB762970FB6F894E1
:10370000DEBF0FBECDBF8C01CB01F801118210824C
:1037100013821282158214824AE09E012F5F3F4F6E
:103720007901B9010E949A2BF70101900020E9F775
:103730003197AF014E195F09B701C8010E94541BB0
:1037400062960FB6F894DEBF0FBECDBFDF91CF916A
:103750001F910F91FF90EF900895FB0101900020C1
:10376000E9F73197AF01461B570B0C94541BAF92EE
:10377000BF92CF92DF92EF92FF920F931F93CF935E
:10378000DF93EC016B015A0179012417350720F40E
:103790008B2D5901E42EF82E198218821B821A8271
:1037A0001D821C8267E875E0CE010E94AD1BD60128
:1037B00014960D911C91A016B10628F5E016F1069D
:1037C00008F48701D601ED91FC911197E00FF11FEC
:1037D000F08010826D917C916A0D7B1D61157105E1
:1037E000F1F0FB0101900020E9F73197AF01461B92
:1037F000570BCE010E94541BF60180819181080F66
:10380000191FD801FC92CE01DF91CF911F910F912A
:10381000FF90EF90DF90CF90BF90AF900895CE01D2
:103820000E94E41AE9CF85ED8093BC0080910807DF
:1038300090910907A0910A07B0910B070796A11D67
:10384000B11D23E0B695A795979587952A95D1F751
:103850002091BC0024FD03C01092060708954091FA
:1038600008075091090760910A0770910B07452BD3
:10387000462B472B69F30097A105B10541F02AE2D9
:103880002A95F1F700C00197A109B109E1CF809114
:1038900007070C946E171F920F920FB60F92112408
:1038A0002F933F938F939F93AF93BF938091DC06A9
:1038B0009091DD06A091DE06B091DF063091D7062B
:1038C00023E0230F2D3758F50196A11DB11D20933C
:1038D000D7068093DC069093DD06A093DE06B093B6
:1038E000DF068091D8069091D906A091DA06B091B2
:1038F000DB060196A11DB11D8093D8069093D906D1
:10390000A093DA06B093DB06BF91AF919F918F91A0
:103910003F912F910F900FBE0F901F90189526E8A2
:10392000230F0296A11DB11DD2CF1F920F920FB689
:103930000F9211242F933F934F935F936F937F9335
:103940008F939F93AF93BF93EF93FF93809135072E
:1039500090913607A0913707B0913807892B8A2BB1
:103960008B2BD1F190913007E0913107F091320724
:103970008081892780838091350790913607A091B7
:103980003707B0913807181619061A061B069CF45B
:103990008091350790913607A0913707B09138078D
:1039A0000197A109B1098093350790933607A09339
:1039B0003707B0933807FF91EF91BF91AF919F9177
:1039C0008F917F916F915F914F913F912F910F90C8
:1039D0000FBE0F901F90189580911A050E94E00A63
:1039E000EACF1F920F920FB60F9211242F933F939D
:1039F0004F935F936F937F938F939F93AF93BF93F7
:103A0000EF93FF93E091A406F091A506309749F05B
:103A1000A685B7858585968D91FF14C09C918923D5
:103A2000A1F4FF91EF91BF91AF919F918F917F9101
:103A30006F915F914F913F912F910F900FBE0F901B
:103A40001F9018959C91892361F7A389B4899C9153
:103A50008589809589238C93868997890197F1F7C9
:103A6000608D718DA685B785558538E020E0CB0146
:103A70000197F1F7822F90E095958795282F4C912B
:103A8000452309F02068315091F7868D81FD2095FE
:103A90008091A30690E00196877099273091A20645
:103AA000381799F0A091A306B0E0A656B94F2C9311
:103AB0008093A306828D938D0197F1F7A389B48932
:103AC0008C919589892B8C93ACCF868D8160868F64
:103AD000F1CF1F920F920FB60F9211242F933F93A5
:103AE0004F935F936F937F938F939F93AF93BF9306
:103AF000EF93FF938091B900887F803609F44AC024
:103B0000F0F5883209F4A7C018F5803109F49BC09C
:103B1000B8F4882309F4F9C0883009F494C0FF91FF
:103B2000EF91BF91AF919F918F917F916F915F9135
:103B30004F913F912F910F900FBE0F901F901895AE
:103B4000883109F488C0803251F78093040714C08B
:103B5000803409F49DC040F48033B9F38833F9F61A
:103B60008093040785ECB0C0803509F485C08835A2
:103B700009F496C0883499F60E94131CD0CF883976
:103B800009F48CC038F5883729F050F4883611F0E4
:103B9000803729F683E0809306071092990657C074
:103BA000883809F47BC0803919F0803809F0B7CF24
:103BB00080919906803208F071C0E091990681E009
:103BC0008E0F809399068091BB00F0E0E758F94F83
:103BD00080833DC0803B39F0E0F4803A09F479C03D
:103BE000883A09F09CCF84E080930607109278060B
:103BF00010927706E091A806F091A90609958091A8
:103C0000770681110FC081E08093770610925706E6
:103C100009C0803C09F4A6CF883C09F4A3CF883BB7
:103C200009F07DCFE091780681E08E0F80937806D1
:103C3000F0E0E95AF94F80818093BB0090917806BB
:103C40008091770629C08091E1068093BB0085ECC6
:103C50008093BC0064CF909103078091020798176E
:103C600058F5E091030781E08E0F80930307F0E0A1
:103C7000EE51F94F8081E9CFE091030781E08E0F8B
:103C8000809303078091BB00F0E0EE51F94F8083F1
:103C900090910307809102079817C8F285E8D8CF62
:103CA000E091030781E08E0F809303078091BB00B2
:103CB000F0E0EE51F94F80838091050781115CCFD0
:103CC00081E08093E00684EA8093BC0010920607AE
:103CD00026CF85EC8093BC00109206078091990650
:103CE000803230F4E0919906F0E0E758F94F108205
:103CF0006091990670E0E091A606F091A70689E729
:103D000096E00995109299060ACF1092040734CFD5
:103D10000F931F93109244071092430708EE13E08D
:103D200020E030E0009345071093460720934707B3
:103D30003093480789E395E09093420780934107C9
:103D400010926F0710926E0740E850E05093710791
:103D50004093700780E490E090937307809372071C
:103D60005093750740937407909377078093760775
:103D700010928207109279071092780710927B07B1
:103D800010927A0761E060938107609380078FEF5C
:103D90009FEF90937F0780937E0790937D0780939A
:103DA0007C07609383071092840710928607109215
:103DB00085078DE595E090936D0780936C079FEFE5
:103DC0009093890790938D0790938B0790938A0720
:103DD00090938C071092500710924F070093510751
:103DE0001093520720935307309354078BE495E0C8
:103DF00090934E0780934D071092640710926307CB
:103E00001092660710926507109268071092670774
:103E100010926A071092690780916B078E7F8D7FE1
:103E200080936B0786958170682789E00E94C80798
:103E300061E089E00E94F607E8E1FEE0E491E093AA
:103E40005D07E4E0FEE0E491F0E0EE0FFF1FEF50CD
:103E5000F24F8591949190935F0780935E0760E0A5
:103E600088E00E94F60780916B0781FD04C061E045
:103E700088E00E94C80788E080935907E7E1FEE0E8
:103E8000E491E0935A07E3E0FEE0E491F0E0EE0F06
:103E9000FF1FE951F24F8591949190935C078093B5
:103EA0005B071F910F910895CF93DF93CDB7DEB7D6
:103EB000A4970FB6F894DEBF0FBECDBF789484B53B
:103EC000826084BD84B5816084BD85B5826085BD16
:103ED00085B5816085BD80916E00816080936E00A4
:103EE0001092810080918100826080938100809196
:103EF0008100816080938100809180008160809347
:103F000080008091B10084608093B1008091B00006
:103F100081608093B00080917A00846080937A0001
:103F200080917A00826080937A0080917A0081602B
:103F300080937A0080917A00806880937A00109252
:103F4000C1001092680710926707109266071092DE
:103F5000650710926407109263078DE991E09093D2
:103F60006A078093690790915907963108F048C015
:103F70002DEB30E030936407209363072BE931E0A9
:103F800030936607209365072CE231E03093680791
:103F9000209367072091680084E0983048F031E072
:103FA0009E3008F430E081E001C0880F3A95EAF7CE
:103FB000822B809368002DE630E0983050F02BE69D
:103FC00030E09E3030F02CE630E0963110F030E0FA
:103FD00020E03093610720936007292F30E098306C
:103FE00010F00C94C62781E001C0880F9A95EAF77B
:103FF000809362078091690790916A070197F1F7B2
:104000008091670790916807892B49F1E091A40698
:10401000F091A50607E0ED34F00709F1309739F08B
:10402000A389B4899C918589809589238C938091FB
:104030006B078E7F80936B071092A3061092A206E7
:104040008DE497E09093A5068093A406E091600725
:10405000F0916107808190916207892B808360E0F5
:1040600086E00E94F60782E0809388078CE38093C5
:104070008707809189078F3F09F496C761E0809197
:104080008B070E94F60761E080918D070E94F6077A
:1040900080918D07082E000C990BFC01E550F24F22
:1040A000E491F0E0EE0FFF1FEF50F24F25913491B5
:1040B0003093940720939307FC01E15FF14FE49163
:1040C000E093990780918B07082E000C990BFC0157
:1040D000E550F24FE491F0E0EE0FFF1FEF50F24F8A
:1040E000259134913093960720939507FC01E15F69
:1040F000F14FE491E0939A0780918E0781113EC0C1
:1041000061E0809189070E94F60761E080918A074B
:104110000E94F60780918A07082E000C990BFC017B
:10412000E550F24FE491F0E0EE0FFF1FEF50F24F39
:10413000259134913093920720939107FC01E15F20
:10414000F14FE491E093980780918907082E000CC5
:10415000990BFC01E550F24FE491F0E0EE0FFF1FE8
:10416000EF50F24F259134913093900720938F07B1
:10417000FC01E15FF14FE491E093970780918E0796
:10418000882309F439C01FB7F8948091AC068111D7
:1041900027C0E5E0FEE08491E9E1FEE09491E82F9C
:1041A000F0E0EE0FFF1FE853F24FA591B491EC91B0
:1041B000E92321F461E08AE00E94C80761E08AE017
:1041C0000E94F6078CB580618CBD8CB580648CBD77
:1041D00061E08DE00E94F60761E08BE00E94F60747
:1041E0008091AC068F5F8093AC061FBF8CB58C7F2F
:1041F0008CBD8DB581608DBD61E080918C070E9482
:10420000F60761E080918C070E94C80761E070E0CA
:1042100080E090E00E94AA0A60E080918C070E94F2
:10422000C8076AE070E080E090E00E94AA0A61E0BE
:1042300080918C070E94C8078EEA0E94FB1885EDCA
:104240000E94FB1880E80E94FB1888EA0E94FB1875
:104250008FE30E94FB1883ED0E94FB1880E00E9410
:10426000FB1880E40E94FB188DE80E94FB1884E193
:104270000E94FB1880E20E94FB1880E00E94FB185D
:1042800081EA0E94FB1888EC0E94FB188AED0E94CC
:10429000FB1882E10E94FB1881E80E94FB188FEC5A
:1042A0000E94FB1889ED0E94FB1881EF0E94FB1809
:1042B0008BED0E94FB1880E40E94FB1884EA0E94A8
:1042C000FB1886EA0E94FB188FEA0E94FB180E94E6
:1042D0004F190E943D1AFF24F394F0928007F09248
:1042E000810700E310E020E330E048E85CE06BE0A9
:1042F00070E086E090E00E943315BFE7CB2EBCE073
:10430000DB2ED0928607C092850781E090E09093E3
:104310007F0780937E0790937D0780937C0701E45D
:1043200010E010937907009378078EE090E0909367
:104330007B0780937A0788E895E00E94D11A109253
:10434000860710928507109379070093780781E11B
:1043500090E090937B0780937A07F0928007F09229
:1043600081078DE895E00E94D11AD0928607C0920D
:104370008507109379070093780787E290E0909380
:104380007B0780937A0780E995E00E94D11A10920A
:1043900086071092850710937907009378078AE2C1
:1043A00090E090937B0780937A0787E995E00E94DD
:1043B000D11A82E090E09093790780937807109269
:1043C0007B0710927A078DE995E00E94D11AF0924E
:1043D0008007F0928107109379070093780784E1B2
:1043E00090E090937B0780937A070E944F19809109
:1043F000850790918607892B49F080917A079091E3
:104400007B07069790937B0780937A071092860725
:104410001092850764EF71E088EB91E00E94201A0A
:1044200064EF71E088EB91E00E94201A64EF71E084
:1044300088EB91E00E94201A6EE571E08DE591E035
:104440000E94201A66E970E08BE092E00E94201A38
:1044500064EF71E088EB91E00E94201A6EE571E054
:104460008DE591E00E94201A66E970E08BE092E011
:104470000E94201A6AE872E088EB91E00E94201AFC
:1044800064EF71E080E090E00E94AA0A64EF71E0BE
:1044900080E090E00E94AA0A8DE497E00E94AD0BB4
:1044A000892B09F498C5F8EE4F2EF3E05F2E612CAE
:1044B000712CA0E28A2EA3E09A2EA12CB12C80911F
:1044C000D5069091D606892B09F090C40E943D1A1A
:1044D00021E030E04EE150E062E370E08CE697E0EE
:1044E0000E94DD0E21E030E041E150E06EE170E03D
:1044F0008CE697E00E94DD0E21E030E042E150E0E2
:104500006CE370E08CE697E00E94DD0E21E030E085
:1045100040E150E067E370E08CE697E00E94DD0E3A
:1045200021E030E04BE250E069E170E08CE697E09A
:104530000E94DD0E21E030E04BE250E064E670E0E6
:104540008CE697E00E94DD0E21E030E044E350E08D
:1045500065E770E08CE697E00E94DD0E21E030E038
:1045600041E350E06EE070E08CE697E00E94DD0EE3
:1045700021E030E048E150E068E170E08CE697E04F
:104580000E94DD0E21E030E044E250E06EE470E095
:104590008CE697E00E94DD0E21E030E049E350E038
:1045A00060E570E08CE697E00E94DD0E21E030E0EF
:1045B0004BE050E06BE670E08CE697E00E94DD0E89
:1045C00021E030E04BE050E066E970E08CE697E0F7
:1045D0000E94DD0E21E030E045E050E065E070E053
:1045E0008CE697E00E94DD0E21E030E047E050E0ED
:1045F00068E070E08CE697E00E94DD0E21E030E09C
:104600004CE050E066E470E08CE697E00E94DD0E3E
:1046100021E030E048E350E06AE070E08CE697E0AB
:104620000E94DD0E21E030E049E150E066E470E0F8
:104630008CE697E00E94DD0E8091D3069091D4061F
:10464000892B59F52FB7F8948091DC069091DD06FF
:10465000A091DE06B091DF062FBF8093CF06909326
:10466000D006A093D106B093D2060E941B2BA501C1
:1046700094010E94E42B60577E4F8F4F9F4F6093B1
:10468000CB067093CC068093CD069093CE0681E046
:1046900090E09093D4068093D3062FB7F89480913E
:1046A000DC069091DD06A091DE06B091DF062FBFFB
:1046B0008093C7069093C806A093C906B093CA0614
:1046C0004091C3065091C4066091C5067091C6061C
:1046D0008C019D01041B150B260B370BB901A8019A
:1046E0004135534C6105710508F446C08093C306FB
:1046F0009093C406A093C506B093C60620911801F6
:10470000309119012F5F3F4F309319012093180109
:1047100040911601509117014F5F5F4F5093170161
:104720004093160120FD14C0209114013091150111
:104730002F5F3F4F309315012093140120911201F8
:10474000309113012150310930931301209312014C
:104750002091100130911101225331093093110140
:104760002093100120910E0130910F012253310945
:1047700030930F0120930E014091CB065091CC064F
:104780006091CD067091CE060091CF061091D006B3
:104790002091D1063091D206400F511F621F731F26
:1047A000481759076A077B07F8F48091C106909172
:1047B000C2061092D4061092D30601969093C206B8
:1047C0008093C1068130910509F00CC48FE590E01B
:1047D00090930D0180930C0180910A0190910B013F
:1047E0009093C0068093BF068091C1069091C20647
:1047F00018161906D4F46091BF067091C00642E005
:1048000050E080910C0190910D010E9494158091CF
:104810000C0190910D012091160130911701821B1E
:10482000930B90930D0180930C018091C1069091A0
:10483000C2060297D4F06091BD067091BE0641E0B9
:1048400050E080910801909109010E949415809197
:104850000801909109012091160130911701821BE6
:10486000930B90930901809308018091C106909168
:10487000C2060397D4F06091BB067091BC0644E079
:1048800050E080910601909107010E94941580915B
:104890000601909107012091160130911701821BAA
:1048A000930B90930701809306018091C10690912C
:1048B000C2060497D4F06091B9067091BA0642E03E
:1048C00050E080910401909105010E94941580911F
:1048D0000401909105012091160130911701821B6E
:1048E000930B90930501809304010E946A078C3218
:1048F000914064F48091020190910301823091050E
:104900002CF0029790930301809302010E946A07A2
:104910008D3B924064F080910201909103018F32AF
:1049200091052CF4029690930301809302010E945A
:10493000A4078130910509F52091B7063091B8069A
:10494000232BD9F49093B8068093B70686E090E0C5
:104950009093B6068093B506809102019091030171
:1049600008969093B4068093B30644E150E060E06B
:1049700070E080EB94E00E9427088091B706909148
:10498000B8060197C9F42091B5063091B606B90171
:10499000685F7F4F7093B6066093B5064091B3068B
:1049A0005091B406245F3F4FEE24E394F12C8A012A
:1049B0008CE697E00E94ED12609102017091030174
:1049C00000E110E020E130E048EA5DE084E090E0C2
:1049D0000E943315409112015091130160910A0118
:1049E00070910B0121E030E08FE590E00E946114AE
:1049F000809112019091130163E070E00E947E2C7F
:104A0000AB0160910A0170910B016D5F7F4F30E047
:104A100020E081E690E00E94611481E080938007AD
:104A20008093810781E090E090937F0780937E07D9
:104A300090937D0780937C0731E2C32ED12CD092D6
:104A40007907C092780709E310E010937B07009381
:104A50007A078EEA95E00E94D11A44E4E42EF12C04
:104A6000F0927907E092780710937B0700937A071A
:104A70008091B1069091B2060E949D1AD09279075A
:104A8000C092780710927B0710927A0785EB95E029
:104A90000E94D11AF0927907E092780710927B0772
:104AA00010927A0780910001909101010E949D1A55
:104AB0008EE690E0909379078093780710927B07B9
:104AC00010927A078CEB95E00E94D11A8AE790E069
:104AD000909379078093780710927B0710927A075A
:104AE00080911801909119010E949D1A8CE690E026
:104AF000909379078093780710937B0700937A0748
:104B00006091C7067091C8068091C9069091CA0647
:104B1000A30192010E944D2CCA01B9014AE00E94F2
:104B2000571A65E875E08CE697E00E94481A0E94E3
:104B30004F194091B5065091B6064138510524F001
:104B40001092B8061092B70680910A0190910B015D
:104B500020911401309115016091AF067091B0065B
:104B6000672B09F075C2820F931F90930B018093FE
:104B70000A01809112019091130120910A01309154
:104B80000B0160E470E0681B790B2617370734F0DF
:104B900061E070E07093B0066093AF0682179307F0
:104BA00024F01092B0061092AF066091B306709197
:104BB000B406F901E81BF90B6E177F0764F1280FA3
:104BC000391F261737073CF12FE530E0281B390B3A
:104BD0002417350704F5815A9F4F48175907DCF40D
:104BE0008CEE9FEF9093B6068093B50644E150E0BB
:104BF00060E070E084EF91E00E9427088091B106A8
:104C00009091B20601969093B2068093B1061092ED
:104C1000B8061092B706009102011091030180912D
:104C2000BF069091C0068017910764F19801205F3C
:104C30003F4F2817390734F180910C0190910D01F5
:104C400005970797F8F4E0900001F09001018FE5D7
:104C500090E090930D0180930C018EEC9FEF909368
:104C6000C0068093BF0644E650E060E070E084E652
:104C700090E00E94270881E0E81AF108F092010113
:104C8000E09200018091BD069091BE0680179107C9
:104C900054F19801205F3F4F2817390724F1809184
:104CA00008019091090105970797E8F4E090000149
:104CB000F09001018EEC9FEF909309018093080121
:104CC0009093BE068093BD0644E650E060E070E03D
:104CD00084E690E00E94270891E0E91AF108F0923A
:104CE0000101E09200018091BB069091BC06801703
:104CF000910754F19801205F3F4F2817390724F19D
:104D0000809106019091070105970797E8F4E090DC
:104D10000001F09001018EEC9FEF909307018093CA
:104D200006019093BC068093BB0644E650E060E029
:104D300070E084E690E00E942708E1E0EE1AF108B6
:104D4000F0920101E09200018091B9069091BA06BB
:104D50008017910774F1005F1F4F081719074CF176
:104D600080910401909105010597079710F5009136
:104D700000011091010188EC90E09093050180936F
:104D800004018EEC9FEF9093BA068093B9061092BF
:104D9000C2061092C10644E650E060E070E084E68E
:104DA00090E00E942708015011091093010100931F
:104DB000000180910401909105011816190654F024
:104DC0001092C2061092C10688EC90E09093050103
:104DD000809304018091000190910101892B31F4AD
:104DE00081E090E09093D6068093D5068091D50619
:104DF0009091D606019709F0ACC380910001909183
:104E00000101892B81F54CE251E060E070E088EC13
:104E100090E00E9427086CE271E080E090E00E9440
:104E2000AA0A48EC50E060E070E08AEF90E00E944F
:104E3000270868EC70E080E090E00E94AA0A4CE24B
:104E400051E060E070E08CE291E00E9427086CE2A3
:104E500071E080E090E00E94AA0A85E090E09093E3
:104E60000101809300010E943D1A10928607109262
:104E7000850782E0809380078093810781E090E03E
:104E800090937F0780937E0790937D0780937C07A4
:104E900084E190E0909379078093780789E190E02E
:104EA00090937B0780937A078FEB95E00E94D11A4D
:104EB0000E944F1918A21F8E1AA219A21CA21BA28F
:104EC00067E875E0CE014F960E94AD1B1A8E198ED1
:104ED0001C8E1B8E1E8E1D8E67E875E0CE014996D6
:104EE0000E94AD1B8FEF9FEF9093AE068093AD06AF
:104EF0008091AD069091AE06019609F087C18D8D27
:104F00009E8D892B09F4A7C0E98CFA8CE114F10479
:104F100009F4A1C0F7018081843209F09CC06CE2E1
:104F200070E0C7010E949C2E009711F38C010E19AE
:104F30001F090F3F1007E1F2980141E050E0BE0168
:104F4000675E7F4FCE0101960E94B71BCE0101968E
:104F50000E94F61A2D8D3E8DA8014F5F5F4FBE0156
:104F6000675E7F4FCE0101960E94B71B89819A81AF
:104F7000009709F443C10E94732B7093AE066093AF
:104F8000AD06CE0101960E94F61AB2CF9E3048F4CB
:104F90002850310981E001C0880F2A95EAF70C9466
:104FA000F81F2E503109F6CF1092AB061092AA06C8
:104FB00010920D0710922F070E9450178DED9AE066
:104FC0009093A9068093A8068EED9AE09093A70689
:104FD0008093A60611C968EA75E08DE497E00E9407
:104FE000481A5ACA8230910579F48FE590E090937F
:104FF00009018093080180910A0190910B0190931F
:10500000BE068093BD06F0CB8330910579F48FE521
:1050100090E0909307018093060180910A0190919E
:105020000B019093BC068093BB06DECB049709F07E
:10503000DBCB8FE590E09093050180930401809194
:105040000A0190910B019093BA068093B906CCCBDC
:10505000821B930B8ACD8DE497E00E94AD0B892BC8
:10506000F1F11A8219821C821B821E821D8267E85E
:1050700075E0CE0101960E94AD1B0E94E30B97FDE7
:105080000FC08A30910561F08F83188641E050E0AF
:10509000BE01695F7F4FCE0101960E94281BEDCFB4
:1050A000898D9A8D009709F498C069817A8161157C
:1050B000710509F490C04B8D5C8D2D813E814217A6
:1050C000530708F488C00E94A72E8D819E819E8F71
:1050D0008D8F1E821D82CE0101960E94F61A60916C
:1050E000B1067091B206CE0101960E94751B6091C7
:1050F000180170911901CE0107960E94751B1E863A
:105100001D86188A1F861A8A198A67EC75E0CE01F7
:105110000D960E94AD1B4B855C856F817885CE0115
:105120000D960E94281B811104C0CE010D960E948D
:10513000E41A41E050E069EC75E0CE010D960E9462
:10514000281B811104C0CE010D960E94E41A4D81E6
:105150005E8169817A81CE010D960E94281B8111A2
:1051600004C0CE010D960E94E41A1C8A1B8A1E8A76
:105170001D8A188E1F8A6D857E856115710531F037
:1051800049895A89CE0143960E94541BCE010D963F
:105190000E94F61ACE0107960E94F61ACE010196D9
:1051A0000E94F61A4F89588D6B897C898DE497E0AF
:1051B0000E940C0B65E875E08DE497E00E94481AA8
:1051C00064EF71E080E090E00E94AA0ACE0143966D
:1051D0000E94F61A94CE0E94482D89819A819A8F56
:1051E000898F8B819C819C8F8B8F8D819E819E8FDF
:1051F0008D8F1A8219821C821B826BCF60E070E057
:10520000CB01BBCE8DE497E00E94C20B8DE497E00A
:105210000E94AD0B18161906ACF382E0282E94E11B
:10522000E92EF12C08E210E0332433942EE1C22E53
:10523000D12C0E94A407019709F4BDC00E943D1A19
:10524000109286071092850720928007209281078E
:1052500021E030E030937F0720937E0730937D0775
:1052600020937C0787E090E09093790780937807FC
:10527000F0927B07E0927A078BEC95E00E94D11ABE
:10528000EEE0F0E0F0937907E093780710937B0766
:1052900000937A07309280073092810786ED95E07F
:1052A0000E94D11A0E944F1964EC79E080E090E0EE
:1052B0000E94AA0A0E943D1A109286071092850742
:1052C000309280073092810729E130E030937907EE
:1052D0002093780710927B0710927A0788EE95E06A
:1052E0000E94D11A10927907109278078AE090E014
:1052F00090937B0780937A0786EF95E00E94D11AFE
:10530000E0E5F0E0F0937907E09378072AE030E0F9
:1053100030937B0720937A078091B1069091B20673
:105320000E949D1A1092790710927807F0927B07DD
:10533000E0927A0783E096E00E94D11A8EE690E030
:105340009093790780937807F0927B07E0927A0731
:105350008091AD069091AE060E949D1A2091B106F3
:105360003091B2068091AD069091AE06D092790749
:10537000C092780710937B0700937A0730928007DA
:1053800030928107821793076CF486E196E00E94C1
:10539000D11A0E944F1964EC79E080E090E00E94FD
:1053A000AA0A47CF281739071CF48FE196E0EFCF00
:1053B00089E296E0ECCF8DE497E00E94AD0B1816E1
:1053C00019062CF48DE497E00E94C20BF4CF4CE256
:1053D00051E060E070E088E191E00E9427086CE213
:1053E00071E080E090E00E94AA0A48EC50E060E0A2
:1053F00070E08AEF90E00E94270868EC70E080E09F
:1054000090E00E94AA0A4CE251E060E070E082E77E
:1054100091E00E9427086CE271E080E090E00E9439
:10542000AA0A1092B6061092B5061092B40610920F
:10543000B3061092B8061092B70688E090E09093F9
:105440000B0180930A011092B0061092AF061092E1
:10545000D6061092D5068FE590E090930D018093CB
:105460000C011092C0061092BF0690930901809320
:1054700008011092BE061092BD069093070180931A
:1054800006011092BC061092BB061092B206109252
:10549000B10623E030E0309317012093160121E09C
:1054A00030E0309315012093140148E552E0509309
:1054B00011014093100140EB54E050930F014093D1
:1054C0000E014CE050E05093130140931201909371
:1054D0000501809304011092BA061092B90685E086
:1054E00090E090930101809300011092D4061092F5
:1054F000D3061092C2061092C10630931901209370
:1055000018011092CF061092D0061092D106109278
:10551000D2061092CB061092CC061092CD061092B5
:10552000CE061092C7061092C8061092C9061092B5
:10553000CA061092C3061092C4061092C5061092B5
:10554000C606CE0149960E94F61ACE014F960E94D9
:10555000F61A80E090E0892B11F40C945F220E94EF
:1055600000000C945F228BE495E090934E078093AB
:105570004D078091A4069091A5068D54974071F433
:10558000E0916007F09161079081809162078095BA
:10559000892380831092A5061092A40608958F9205
:1055A0009F92AF92BF92CF92DF92EF92FF92CF93F2
:1055B000DF93EC01688179818A819B816115710596
:1055C0008105910521F464E279ED8BE597E02DE109
:1055D00033EF41E050E00E94E42B49015A019B0166
:1055E000AC01A7EAB1E40E94032C6B017C01ACEE94
:1055F000B4EFA50194010E94112CC60ED71EE81E1F
:10560000F91EF7FE06C081E0C81AD108E10880E85B
:10561000F80AC882D982EA82FB82C701B6019F7765
:10562000DF91CF91FF90EF90DF90CF90BF90AF9040
:105630009F908F9008958F929F92AF92BF92CF923A
:10564000DF92EF92FF9260911B0570911C05809193
:105650001D0590911E05611571058105910521F4C7
:1056600064E279ED8BE597E02DE133EF41E050E026
:105670000E94E42B49015A019B01AC01A7EAB1E465
:105680000E94032C6B017C01ACEEB4EFA5019401E8
:105690000E94112CC60ED71EE81EF91EF7FE06C08A
:1056A00081E0C81AD108E10880E8F80AC0921B0519
:1056B000D0921C05E0921D05F0921E05C701B601AF
:1056C0009F77FF90EF90DF90CF90BF90AF909F902B
:1056D0008F90089560931B0570931C0580931D05A2
:1056E00090931E0508951F93FC0199278827BC01FC
:1056F000E89411911032E9F3193010F01E30C8F31C
:105700001B3251F01D3249F4689406C00E94A52B4B
:10571000610F711D811D911D119110531A30B0F34D
:105720003EF490958095709561957F4F8F4F9F4F78
:105730001F910895BB274A3031F4992322F4BDE22A
:10574000909581959F4F0C94BB2B592F482F372F45
:10575000262F660F771F881F991F660F771F881FD8
:10576000991F620F731F841F951F660F771F881F75
:10577000991F0895BB27FB015527AA27880F991F5A
:10578000AA1FA41710F0A41B83955051B9F7A05D70
:10579000AA3308F0A95DA193009779F7B111B193ED
:1057A0001192CB010C94D42BDC01FC01672F719179
:1057B0007723E1F7329704C07C916D9370836291F7
:1057C000AE17BF07C8F30895052E97FB1EF400948B
:1057D0000E94FB2B57FD07D00E944D2C07FC03D0E5
:1057E0004EF40C94FB2B50954095309521953F4FEE
:1057F0004F4F5F4F089590958095709561957F4FBD
:105800008F4F9F4F08950E946F2CA59F900DB49FBE
:10581000900DA49F800D911D11240895B7FF0C9445
:10582000032C0E94032C821B930B08952F923F920E
:105830004F925F926F927F928F929F92AF92BF92A0
:10584000CF92DF92EF92FF920F931F93CF93DF934C
:10585000CDB7DEB7CA1BDB0B0FB6F894DEBF0FBEA9
:10586000CDBF09942A88398848885F846E847D84F6
:105870008C849B84AA84B984C884DF80EE80FD80F8
:105880000C811B81AA81B981CE0FD11D0FB6F8946E
:10589000DEBF0FBECDBFED010895A1E21A2EAA1BF7
:1058A000BB1BFD010DC0AA1FBB1FEE1FFF1FA217D0
:1058B000B307E407F50720F0A21BB30BE40BF50BCD
:1058C000661F771F881F991F1A9469F76095709556
:1058D000809590959B01AC01BD01CF010895A29FD9
:1058E000B001B39FC001A39F700D811D1124911DB4
:1058F000B29F700D811D1124911D089597FB072EF5
:1059000016F4009407D077FD09D00E94922C07FC72
:1059100005D03EF4909581959F4F089570956195BF
:105920007F4F0895AA1BBB1B51E107C0AA1FBB1FD5
:10593000A617B70710F0A61BB70B881F991F5A951B
:10594000A9F780959095BC01CD010895EE0FFF1F3A
:105950000590F491E02D09940F931F93CF93DF935B
:105960008230910510F482E090E0E0919D07F09183
:105970009E0730E020E0B0E0A0E0309799F42115D8
:10598000310509F44AC0281B390B24303105D8F5FC
:105990008A819B816115710589F1FB019383828363
:1059A000FE0111C0408151810281138148175907BE
:1059B000E0F04817590799F4109761F012960C938C
:1059C000129713961C933296CF01DF91CF911F91BE
:1059D0000F91089500939D0710939E07F4CF211512
:1059E000310551F04217530738F0A901DB019A0144
:1059F000BD01DF01F801C1CFEF01F9CF90939E0700
:105A000080939D07CDCFFE01E20FF31F8193919309
:105A10002250310939832883D7CF20919B073091B9
:105A20009C07232B41F420912105309122053093CE
:105A30009C0720939B0720911F053091200521157D
:105A4000310541F42DB73EB740912305509124050F
:105A5000241B350BE0919B07F0919C07E217F3079D
:105A6000A0F42E1B3F0B2817390778F0AC014E5FCE
:105A70005F4F2417350748F04E0F5F1F50939C0768
:105A800040939B07819391939FCFF0E0E0E09CCF00
:105A9000CF93DF930097E9F0FC01329713821282D3
:105AA000A0919D07B0919E07ED0130E020E0109796
:105AB000A1F420813181820F931F20919B073091A7
:105AC0009C072817390709F061C0F0939C07E09301
:105AD0009B07DF91CF910895EA01CE17DF07E8F524
